{
  "contractName": "DemocraticPlayer",
  "abi": [
    {
      "inputs": [],
      "payable": false,
      "stateMutability": "nonpayable",
      "type": "constructor"
    },
    {
      "constant": false,
      "inputs": [
        {
          "name": "_guess",
          "type": "bool"
        }
      ],
      "name": "flip",
      "outputs": [
        {
          "name": "",
          "type": "bool"
        }
      ],
      "payable": false,
      "stateMutability": "nonpayable",
      "type": "function"
    }
  ],
  "bytecode": "0x6060604052341561000f57600080fd5b60b18061001d6000396000f300606060405260043610603f576000357c0100000000000000000000000000000000000000000000000000000000900463ffffffff1680631d263f67146044575b600080fd5b3415604e57600080fd5b606460048080351515906020019091905050607e565b604051808215151515815260200191505060405180910390f35b60009190505600a165627a7a72305820de3e646f40c8f96c00abf488428a2f11e9da6bab917e8622feadb8f5d6f11f220029",
  "source": "pragma solidity 0.4.19;\n\nimport \"zeppelin-solidity/contracts/ownership/Ownable.sol\";\n\ncontract DemocraticPlayer {\n\n  function DemocraticPlayer() public {\n  }\n\n  function flip(bool _guess) public returns (bool) {\n  }\n\n}\n",
  "sourcePath": "/Users/musnit/code/crypto/chessocracy/contracts/DemocraticPlayer.sol",
  "compiler": {
    "name": "solc",
    "version": "0.4.19+commit.c4cbbb05.Emscripten.clang"
  },
  "schemaVersion": "2.0.0",
  "updatedAt": "2018-03-27T09:54:57.777Z"
}